:100000000C94460018950000189500001895000003
:10001000189500001895000018950000189500002C
:10002000189500001895000018950000189500001C
:10003000189500001895000018950000189500000C
:1000400018950000189500001895000018950000FC
:1000500018950000189500001895000018950000EC
:1000600018950000189500001895000018950000DC
:1000700018950000189500001895000018950000CC
:100080001895000018950000189500008FEF8DBF9F
:10009000C8EDE0EC4E2E80E18EBFD0E1F0E15F2EA6
:1000A000A89584B7082E877F84BF88E1992781BDF2
:1000B00091BDEEEFFFE0A0E0B1E088278D9331978E
:1000C000E9F766248FEF8ABB70E07BBB8AEF90E094
:1000D0000E94CF0071E07BBB8AEF90E00E94CF00CE
:1000E00072E07BBB8AEF90E00E94CF0073E07BBBA5
:1000F0008AEF90E00E94CF0074E07BBB8AEF90E033
:100100000E94CF0075E07BBB8AEF90E00E94CF0099
:1001100076E07BBB8AEF90E00E94CF0077E07BBB6C
:100120008AEF90E00E94CF0078E07BBB8AEF90E0FE
:100130000E94CF0079E07BBB8AEF90E00E94CF0065
:100140007AE07BBB8AEF90E00E94CF007BE07BBB34
:100150008AEF90E00E94CF007CE07BBB8AEF90E0CA
:100160000E94CF007DE07BBB8AEF90E00E94CF0031
:100170007EE07BBB8AEF90E00E94CF007FE07BBBFC
:100180008AEF90E00E94CF000C9464003197F1F761
:100190000895689462F80895E89462F80895EF93DA
:1001A000FF93EE27E82BE92B31F0EAEFF0E03197EF
:0C01B000F1F70197D1F7FF91EF9108954E
:00000001FF
